{
  "_format": "hh-sol-artifact-1",
  "contractName": "Election",
  "sourceName": "contracts/Election.sol",
  "abi": [
    {
      "inputs": [],
      "stateMutability": "nonpayable",
      "type": "constructor"
    },
    {
      "anonymous": false,
      "inputs": [
        {
          "indexed": true,
          "internalType": "uint256",
          "name": "_candidateId",
          "type": "uint256"
        }
      ],
      "name": "electionupdates",
      "type": "event"
    },
    {
      "inputs": [
        {
          "internalType": "string",
          "name": "name",
          "type": "string"
        }
      ],
      "name": "addCandidate",
      "outputs": [],
      "stateMutability": "nonpayable",
      "type": "function"
    },
    {
      "inputs": [],
      "name": "admin",
      "outputs": [
        {
          "internalType": "address",
          "name": "",
          "type": "address"
        }
      ],
      "stateMutability": "view",
      "type": "function"
    },
    {
      "inputs": [
        {
          "internalType": "uint256",
          "name": "",
          "type": "uint256"
        }
      ],
      "name": "candidates",
      "outputs": [
        {
          "internalType": "uint256",
          "name": "id",
          "type": "uint256"
        },
        {
          "internalType": "string",
          "name": "name",
          "type": "string"
        },
        {
          "internalType": "uint256",
          "name": "voteCount",
          "type": "uint256"
        }
      ],
      "stateMutability": "view",
      "type": "function"
    },
    {
      "inputs": [],
      "name": "candidatesCount",
      "outputs": [
        {
          "internalType": "uint256",
          "name": "",
          "type": "uint256"
        }
      ],
      "stateMutability": "view",
      "type": "function"
    },
    {
      "inputs": [],
      "name": "startTime",
      "outputs": [
        {
          "internalType": "uint256",
          "name": "",
          "type": "uint256"
        }
      ],
      "stateMutability": "view",
      "type": "function"
    },
    {
      "inputs": [
        {
          "internalType": "uint256",
          "name": "_candidateId",
          "type": "uint256"
        }
      ],
      "name": "vote",
      "outputs": [],
      "stateMutability": "nonpayable",
      "type": "function"
    },
    {
      "inputs": [
        {
          "internalType": "address",
          "name": "",
          "type": "address"
        }
      ],
      "name": "votedornot",
      "outputs": [
        {
          "internalType": "bool",
          "name": "",
          "type": "bool"
        }
      ],
      "stateMutability": "view",
      "type": "function"
    },
    {
      "inputs": [],
      "name": "votingDuration",
      "outputs": [
        {
          "internalType": "uint256",
          "name": "",
          "type": "uint256"
        }
      ],
      "stateMutability": "view",
      "type": "function"
    }
  ],
  "bytecode": "0x60806040526301e1338060025534801561001857600080fd5b50336000806101000a81548173ffffffffffffffffffffffffffffffffffffffff021916908373ffffffffffffffffffffffffffffffffffffffff16021790555042600181905550610c6f8061006f6000396000f3fe608060405234801561001057600080fd5b50600436106100885760003560e01c80633477ee2e1161005b5780633477ee2e14610115578063462e91ec1461014757806378e9792514610163578063f851a4401461018157610088565b80630121b93f1461008d578063132002fc146100a95780631bc57022146100c75780632d35a8a2146100f7575b600080fd5b6100a760048036038101906100a29190610522565b61019f565b005b6100b16102e1565b6040516100be919061055e565b60405180910390f35b6100e160048036038101906100dc91906105d7565b6102e7565b6040516100ee919061061f565b60405180910390f35b6100ff610307565b60405161010c919061055e565b60405180910390f35b61012f600480360381019061012a9190610522565b61030d565b60405161013e939291906106ca565b60405180910390f35b610161600480360381019061015c919061083d565b6103bf565b005b61016b6104ae565b604051610178919061055e565b60405180910390f35b6101896104b4565b6040516101969190610895565b60405180910390f35b6002546001546101af91906108df565b4211156101bb57600080fd5b600360003373ffffffffffffffffffffffffffffffffffffffff1673ffffffffffffffffffffffffffffffffffffffff16815260200190815260200160002060009054906101000a900460ff161561021257600080fd5b60008111801561022457506005548111155b61022d57600080fd5b60046000828152602001908152602001600020600201600081548092919061025490610913565b91905055506001600360003373ffffffffffffffffffffffffffffffffffffffff1673ffffffffffffffffffffffffffffffffffffffff16815260200190815260200160002060006101000a81548160ff021916908315150217905550807fd93077071c8cb212a55328c172d918aa4be24d23f29cfe1816841243ec02158260405160405180910390a250565b60025481565b60036020528060005260406000206000915054906101000a900460ff1681565b60055481565b60046020528060005260406000206000915090508060000154908060010180546103369061098a565b80601f01602080910402602001604051908101604052809291908181526020018280546103629061098a565b80156103af5780601f10610384576101008083540402835291602001916103af565b820191906000526020600020905b81548152906001019060200180831161039257829003601f168201915b5050505050908060020154905083565b6002546001546103cf91906108df565b4211156103db57600080fd5b60008054906101000a900473ffffffffffffffffffffffffffffffffffffffff1673ffffffffffffffffffffffffffffffffffffffff163373ffffffffffffffffffffffffffffffffffffffff161461043357600080fd5b6005600081548092919061044690610913565b919050555060405180606001604052806005548152602001828152602001600081525060046000600554815260200190815260200160002060008201518160000155602082015181600101908161049d9190610b67565b506040820151816002015590505050565b60015481565b60008054906101000a900473ffffffffffffffffffffffffffffffffffffffff1681565b6000604051905090565b600080fd5b600080fd5b6000819050919050565b6104ff816104ec565b811461050a57600080fd5b50565b60008135905061051c816104f6565b92915050565b600060208284031215610538576105376104e2565b5b60006105468482850161050d565b91505092915050565b610558816104ec565b82525050565b6000602082019050610573600083018461054f565b92915050565b600073ffffffffffffffffffffffffffffffffffffffff82169050919050565b60006105a482610579565b9050919050565b6105b481610599565b81146105bf57600080fd5b50565b6000813590506105d1816105ab565b92915050565b6000602082840312156105ed576105ec6104e2565b5b60006105fb848285016105c2565b91505092915050565b60008115159050919050565b61061981610604565b82525050565b60006020820190506106346000830184610610565b92915050565b600081519050919050565b600082825260208201905092915050565b60005b83811015610674578082015181840152602081019050610659565b60008484015250505050565b6000601f19601f8301169050919050565b600061069c8261063a565b6106a68185610645565b93506106b6818560208601610656565b6106bf81610680565b840191505092915050565b60006060820190506106df600083018661054f565b81810360208301526106f18185610691565b9050610700604083018461054f565b949350505050565b600080fd5b600080fd5b7f4e487b7100000000000000000000000000000000000000000000000000000000600052604160045260246000fd5b61074a82610680565b810181811067ffffffffffffffff8211171561076957610768610712565b5b80604052505050565b600061077c6104d8565b90506107888282610741565b919050565b600067ffffffffffffffff8211156107a8576107a7610712565b5b6107b182610680565b9050602081019050919050565b82818337600083830152505050565b60006107e06107db8461078d565b610772565b9050828152602081018484840111156107fc576107fb61070d565b5b6108078482856107be565b509392505050565b600082601f83011261082457610823610708565b5b81356108348482602086016107cd565b91505092915050565b600060208284031215610853576108526104e2565b5b600082013567ffffffffffffffff811115610871576108706104e7565b5b61087d8482850161080f565b91505092915050565b61088f81610599565b82525050565b60006020820190506108aa6000830184610886565b92915050565b7f4e487b7100000000000000000000000000000000000000000000000000000000600052601160045260246000fd5b60006108ea826104ec565b91506108f5836104ec565b925082820190508082111561090d5761090c6108b0565b5b92915050565b600061091e826104ec565b91507fffffffffffffffffffffffffffffffffffffffffffffffffffffffffffffffff82036109505761094f6108b0565b5b600182019050919050565b7f4e487b7100000000000000000000000000000000000000000000000000000000600052602260045260246000fd5b600060028204905060018216806109a257607f821691505b6020821081036109b5576109b461095b565b5b50919050565b60008190508160005260206000209050919050565b60006020601f8301049050919050565b600082821b905092915050565b600060088302610a1d7fffffffffffffffffffffffffffffffffffffffffffffffffffffffffffffffff826109e0565b610a2786836109e0565b95508019841693508086168417925050509392505050565b6000819050919050565b6000610a64610a5f610a5a846104ec565b610a3f565b6104ec565b9050919050565b6000819050919050565b610a7e83610a49565b610a92610a8a82610a6b565b8484546109ed565b825550505050565b600090565b610aa7610a9a565b610ab2818484610a75565b505050565b5b81811015610ad657610acb600082610a9f565b600181019050610ab8565b5050565b601f821115610b1b57610aec816109bb565b610af5846109d0565b81016020851015610b04578190505b610b18610b10856109d0565b830182610ab7565b50505b505050565b600082821c905092915050565b6000610b3e60001984600802610b20565b1980831691505092915050565b6000610b578383610b2d565b9150826002028217905092915050565b610b708261063a565b67ffffffffffffffff811115610b8957610b88610712565b5b610b93825461098a565b610b9e828285610ada565b600060209050601f831160018114610bd15760008415610bbf578287015190505b610bc98582610b4b565b865550610c31565b601f198416610bdf866109bb565b60005b82811015610c0757848901518255600182019150602085019450602081019050610be2565b86831015610c245784890151610c20601f891682610b2d565b8355505b6001600288020188555050505b50505050505056fea26469706673582212200179762f4d7b2c5ce238e45da1d0d3ea7152368d6e77920c37bbc3b16dd235f164736f6c63430008110033",
  "linkReferences": {},
  "deployedLinkReferences": {}
}